{
  "_format": "hh-sol-artifact-1",
  "contractName": "StarlistLootbox",
  "sourceName": "contracts/StarlistLootboxProd.sol",
  "abi": [
    {
      "inputs": [
        {
          "internalType": "bytes32[]",
          "name": "_merkleProof",
          "type": "bytes32[]"
        }
      ],
      "name": "claim",
      "outputs": [],
      "stateMutability": "nonpayable",
      "type": "function"
    },
    {
      "inputs": [
        {
          "internalType": "address",
          "name": "",
          "type": "address"
        }
      ],
      "name": "claimed",
      "outputs": [
        {
          "internalType": "uint8",
          "name": "",
          "type": "uint8"
        }
      ],
      "stateMutability": "view",
      "type": "function"
    },
    {
      "inputs": [
        {
          "internalType": "address",
          "name": "_addr",
          "type": "address"
        }
      ],
      "name": "isAdmin",
      "outputs": [
        {
          "internalType": "bool",
          "name": "",
          "type": "bool"
        }
      ],
      "stateMutability": "view",
      "type": "function"
    },
    {
      "inputs": [],
      "name": "owner",
      "outputs": [
        {
          "internalType": "address",
          "name": "",
          "type": "address"
        }
      ],
      "stateMutability": "view",
      "type": "function"
    },
    {
      "inputs": [
        {
          "internalType": "bytes32",
          "name": "rootOne",
          "type": "bytes32"
        },
        {
          "internalType": "bytes32",
          "name": "rootTwo",
          "type": "bytes32"
        }
      ],
      "name": "setMerkleRoots",
      "outputs": [],
      "stateMutability": "nonpayable",
      "type": "function"
    },
    {
      "inputs": [
        {
          "internalType": "uint16[]",
          "name": "ids",
          "type": "uint16[]"
        }
      ],
      "name": "setPoetTokenIDs",
      "outputs": [],
      "stateMutability": "nonpayable",
      "type": "function"
    },
    {
      "inputs": [
        {
          "internalType": "address",
          "name": "addr",
          "type": "address"
        }
      ],
      "name": "setVaultAddress",
      "outputs": [],
      "stateMutability": "nonpayable",
      "type": "function"
    },
    {
      "inputs": [
        {
          "internalType": "address[]",
          "name": "accounts",
          "type": "address[]"
        }
      ],
      "name": "toggleAdmins",
      "outputs": [],
      "stateMutability": "nonpayable",
      "type": "function"
    },
    {
      "inputs": [
        {
          "internalType": "address",
          "name": "newOwner",
          "type": "address"
        }
      ],
      "name": "transferOwnership",
      "outputs": [],
      "stateMutability": "nonpayable",
      "type": "function"
    }
  ],
  "bytecode": "0x608060405273161e4041010fd23daf7cde9fb970ae4c380818eb600260006101000a81548173ffffffffffffffffffffffffffffffffffffffff021916908373ffffffffffffffffffffffffffffffffffffffff1602179055506040518060600160405280610bc361ffff168152602001610bc161ffff168152602001610bc061ffff16815250600690600362000098929190620000ed565b50348015620000a657600080fd5b50336000806101000a81548173ffffffffffffffffffffffffffffffffffffffff021916908373ffffffffffffffffffffffffffffffffffffffff160217905550620001bd565b82805482825590600052602060002090600f016010900481019282156200018b5791602002820160005b838211156200015957835183826101000a81548161ffff021916908361ffff160217905550926020019260020160208160010104928301926001030262000117565b8015620001895782816101000a81549061ffff021916905560020160208160010104928301926001030262000159565b505b5090506200019a91906200019e565b5090565b5b80821115620001b95760008160009055506001016200019f565b5090565b6114c780620001cd6000396000f3fe608060405234801561001057600080fd5b50600436106100935760003560e01c80638da5cb5b116100665780638da5cb5b1461011c5780639a48eb511461013a578063b391c50814610156578063c884ef8314610172578063f2fde38b146101a257610093565b806324d7806c146100985780633184f7ab146100c857806385535cc5146100e457806387090e1714610100575b600080fd5b6100b260048036038101906100ad9190610df6565b6101be565b6040516100bf9190611100565b60405180910390f35b6100e260048036038101906100dd9190610ea9565b61026a565b005b6100fe60048036038101906100f99190610df6565b6102c8565b005b61011a60048036038101906101159190610e1f565b610354565b005b6101246105a7565b6040516101319190611056565b60405180910390f35b610154600480360381019061014f9190610eee565b6105cb565b005b610170600480360381019061016b9190610e64565b610625565b005b61018c60048036038101906101879190610df6565b610a69565b604051610199919061119b565b60405180910390f35b6101bc60048036038101906101b79190610df6565b610a89565b005b60008173ffffffffffffffffffffffffffffffffffffffff1660008054906101000a900473ffffffffffffffffffffffffffffffffffffffff1673ffffffffffffffffffffffffffffffffffffffff1614806102635750600160008373ffffffffffffffffffffffffffffffffffffffff1673ffffffffffffffffffffffffffffffffffffffff16815260200190815260200160002060009054906101000a900460ff165b9050919050565b610273336101be565b6102b2576040517f08c379a00000000000000000000000000000000000000000000000000000000081526004016102a99061111b565b60405180910390fd5b8181600691906102c3929190610c23565b505050565b6102d1336101be565b610310576040517f08c379a00000000000000000000000000000000000000000000000000000000081526004016103079061111b565b60405180910390fd5b80600260006101000a81548173ffffffffffffffffffffffffffffffffffffffff021916908373ffffffffffffffffffffffffffffffffffffffff16021790555050565b61035d336101be565b61039c576040517f08c379a00000000000000000000000000000000000000000000000000000000081526004016103939061111b565b60405180910390fd5b60005b828290508110156105a257600160008484848181106103e7577f4e487b7100000000000000000000000000000000000000000000000000000000600052603260045260246000fd5b90506020020160208101906103fc9190610df6565b73ffffffffffffffffffffffffffffffffffffffff1673ffffffffffffffffffffffffffffffffffffffff16815260200190815260200160002060009054906101000a900460ff16156104ea5760016000848484818110610486577f4e487b7100000000000000000000000000000000000000000000000000000000600052603260045260246000fd5b905060200201602081019061049b9190610df6565b73ffffffffffffffffffffffffffffffffffffffff1673ffffffffffffffffffffffffffffffffffffffff16815260200190815260200160002060006101000a81549060ff021916905561058f565b6001806000858585818110610528577f4e487b7100000000000000000000000000000000000000000000000000000000600052603260045260246000fd5b905060200201602081019061053d9190610df6565b73ffffffffffffffffffffffffffffffffffffffff1673ffffffffffffffffffffffffffffffffffffffff16815260200190815260200160002060006101000a81548160ff0219169083151502179055505b808061059a9061129d565b91505061039f565b505050565b60008054906101000a900473ffffffffffffffffffffffffffffffffffffffff1681565b6105d4336101be565b610613576040517f08c379a000000000000000000000000000000000000000000000000000000000815260040161060a9061111b565b60405180910390fd5b81600481905550806005819055505050565b6000600360003373ffffffffffffffffffffffffffffffffffffffff1673ffffffffffffffffffffffffffffffffffffffff16815260200190815260200160002060009054906101000a900460ff1660ff16146106b7576040517f08c379a00000000000000000000000000000000000000000000000000000000081526004016106ae9061113b565b60405180910390fd5b600360003373ffffffffffffffffffffffffffffffffffffffff1673ffffffffffffffffffffffffffffffffffffffff168152602001908152602001600020600081819054906101000a900460ff1680929190610713906112e6565b91906101000a81548160ff021916908360ff1602179055505060003360405160200161073f919061103b565b6040516020818303038152906040528051906020012090506107a5838380806020026020016040519081016040528093929190818152602001838360200280828437600081840152601f19601f8201169050808301925050505050505060045483610b5a565b156108575773a7206d878c5c3871826dfdb42191c49b1d11f46673ffffffffffffffffffffffffffffffffffffffff1663f242432a600260009054906101000a900473ffffffffffffffffffffffffffffffffffffffff16336001806040518563ffffffff1660e01b81526004016108209493929190611071565b600060405180830381600087803b15801561083a57600080fd5b505af115801561084e573d6000803e3d6000fd5b50505050610a64565b6108a5838380806020026020016040519081016040528093929190818152602001838360200280828437600081840152601f19601f8201169050808301925050505050505060055483610b5a565b6108e4576040517f08c379a00000000000000000000000000000000000000000000000000000000081526004016108db9061117b565b60405180910390fd5b6000600660016006805490506108fa91906111d8565b81548110610931577f4e487b7100000000000000000000000000000000000000000000000000000000600052603260045260246000fd5b90600052602060002090601091828204019190066002029054906101000a900461ffff169050600680548061098f577f4e487b7100000000000000000000000000000000000000000000000000000000600052603160045260246000fd5b60019003818190600052602060002090601091828204019190066002026101000a81549061ffff02191690559055734b3406a41399c7fd2ba65cbc93697ad9e7ea61e573ffffffffffffffffffffffffffffffffffffffff166342842e0e600260009054906101000a900473ffffffffffffffffffffffffffffffffffffffff1633846040518463ffffffff1660e01b8152600401610a30939291906110c9565b600060405180830381600087803b158015610a4a57600080fd5b505af1158015610a5e573d6000803e3d6000fd5b50505050505b505050565b60036020528060005260406000206000915054906101000a900460ff1681565b60008054906101000a900473ffffffffffffffffffffffffffffffffffffffff1673ffffffffffffffffffffffffffffffffffffffff163373ffffffffffffffffffffffffffffffffffffffff1614610b17576040517f08c379a0000000000000000000000000000000000000000000000000000000008152600401610b0e9061115b565b60405180910390fd5b806000806101000a81548173ffffffffffffffffffffffffffffffffffffffff021916908373ffffffffffffffffffffffffffffffffffffffff16021790555050565b600082610b678584610b71565b1490509392505050565b60008082905060005b8451811015610c01576000858281518110610bbe577f4e487b7100000000000000000000000000000000000000000000000000000000600052603260045260246000fd5b60200260200101519050808311610be057610bd98382610c0c565b9250610bed565b610bea8184610c0c565b92505b508080610bf99061129d565b915050610b7a565b508091505092915050565b600082600052816020526040600020905092915050565b82805482825590600052602060002090600f01601090048101928215610cc05791602002820160005b83821115610c9057833561ffff1683826101000a81548161ffff021916908361ffff1602179055509260200192600201602081600101049283019260010302610c4c565b8015610cbe5782816101000a81549061ffff0219169055600201602081600101049283019260010302610c90565b505b509050610ccd9190610cd1565b5090565b5b80821115610cea576000816000905550600101610cd2565b5090565b600081359050610cfd81611463565b92915050565b60008083601f840112610d1557600080fd5b8235905067ffffffffffffffff811115610d2e57600080fd5b602083019150836020820283011115610d4657600080fd5b9250929050565b60008083601f840112610d5f57600080fd5b8235905067ffffffffffffffff811115610d7857600080fd5b602083019150836020820283011115610d9057600080fd5b9250929050565b60008083601f840112610da957600080fd5b8235905067ffffffffffffffff811115610dc257600080fd5b602083019150836020820283011115610dda57600080fd5b9250929050565b600081359050610df08161147a565b92915050565b600060208284031215610e0857600080fd5b6000610e1684828501610cee565b91505092915050565b60008060208385031215610e3257600080fd5b600083013567ffffffffffffffff811115610e4c57600080fd5b610e5885828601610d03565b92509250509250929050565b60008060208385031215610e7757600080fd5b600083013567ffffffffffffffff811115610e9157600080fd5b610e9d85828601610d4d565b92509250509250929050565b60008060208385031215610ebc57600080fd5b600083013567ffffffffffffffff811115610ed657600080fd5b610ee285828601610d97565b92509250509250929050565b60008060408385031215610f0157600080fd5b6000610f0f85828601610de1565b9250506020610f2085828601610de1565b9150509250929050565b610f338161120c565b82525050565b610f4a610f458261120c565b611310565b82525050565b610f598161121e565b82525050565b610f6881611279565b82525050565b6000610f7b6027836111c7565b9150610f8682611370565b604082019050919050565b6000610f9e601f836111c7565b9150610fa9826113bf565b602082019050919050565b6000610fc1602a836111c7565b9150610fcc826113e8565b604082019050919050565b6000610fe46000836111b6565b9150610fef82611437565b600082019050919050565b60006110076014836111c7565b91506110128261143a565b602082019050919050565b6110268161128b565b82525050565b6110358161126c565b82525050565b60006110478284610f39565b60148201915081905092915050565b600060208201905061106b6000830184610f2a565b92915050565b600060a0820190506110866000830187610f2a565b6110936020830186610f2a565b6110a06040830185610f5f565b6110ad6060830184610f5f565b81810360808301526110be81610fd7565b905095945050505050565b60006060820190506110de6000830186610f2a565b6110eb6020830185610f2a565b6110f8604083018461101d565b949350505050565b60006020820190506111156000830184610f50565b92915050565b6000602082019050818103600083015261113481610f6e565b9050919050565b6000602082019050818103600083015261115481610f91565b9050919050565b6000602082019050818103600083015261117481610fb4565b9050919050565b6000602082019050818103600083015261119481610ffa565b9050919050565b60006020820190506111b0600083018461102c565b92915050565b600082825260208201905092915050565b600082825260208201905092915050565b60006111e382611262565b91506111ee83611262565b92508282101561120157611200611334565b5b828203905092915050565b600061121782611242565b9050919050565b60008115159050919050565b6000819050919050565b600061ffff82169050919050565b600073ffffffffffffffffffffffffffffffffffffffff82169050919050565b6000819050919050565b600060ff82169050919050565b600061128482611262565b9050919050565b600061129682611234565b9050919050565b60006112a882611262565b91507fffffffffffffffffffffffffffffffffffffffffffffffffffffffffffffffff8214156112db576112da611334565b5b600182019050919050565b60006112f18261126c565b915060ff82141561130557611304611334565b5b600182019050919050565b600061131b82611322565b9050919050565b600061132d82611363565b9050919050565b7f4e487b7100000000000000000000000000000000000000000000000000000000600052601160045260246000fd5b60008160601b9050919050565b7f41646d696e50726976696c656765733a2063616c6c6572206973206e6f74206160008201527f6e2061646d696e00000000000000000000000000000000000000000000000000602082015250565b7f546869732077616c6c65742068617320616c726561647920636c61696d656400600082015250565b7f4f6e6c7920636f6e7472616374206f776e65722063616e207472616e7366657260008201527f206f776e65727368697000000000000000000000000000000000000000000000602082015250565b50565b7f496e76616c6964204d65726b6c652070726f6f66000000000000000000000000600082015250565b61146c8161120c565b811461147757600080fd5b50565b6114838161122a565b811461148e57600080fd5b5056fea264697066735822122051319b0c7fabd0a4088c2f04f1d7fed0226ff061dec2afd270f5457132adbb4b64736f6c63430008010033",
  "linkReferences": {},
  "deployedLinkReferences": {}
}