{
  "_format": "hh-sol-artifact-1",
  "contractName": "StarlistLootboxSkeleton",
  "sourceName": "contracts/StarlistLootboxSkeleton.sol",
  "abi": [
    {
      "inputs": [
        {
          "internalType": "bytes32[]",
          "name": "_merkleProof",
          "type": "bytes32[]"
        }
      ],
      "name": "claim",
      "outputs": [],
      "stateMutability": "nonpayable",
      "type": "function"
    },
    {
      "inputs": [
        {
          "internalType": "address",
          "name": "",
          "type": "address"
        }
      ],
      "name": "claimed",
      "outputs": [
        {
          "internalType": "uint8",
          "name": "",
          "type": "uint8"
        }
      ],
      "stateMutability": "view",
      "type": "function"
    },
    {
      "inputs": [
        {
          "internalType": "address",
          "name": "_addr",
          "type": "address"
        }
      ],
      "name": "isAdmin",
      "outputs": [
        {
          "internalType": "bool",
          "name": "",
          "type": "bool"
        }
      ],
      "stateMutability": "view",
      "type": "function"
    },
    {
      "inputs": [],
      "name": "merkleRootOne",
      "outputs": [
        {
          "internalType": "bytes32",
          "name": "",
          "type": "bytes32"
        }
      ],
      "stateMutability": "view",
      "type": "function"
    },
    {
      "inputs": [],
      "name": "merkleRootTwo",
      "outputs": [
        {
          "internalType": "bytes32",
          "name": "",
          "type": "bytes32"
        }
      ],
      "stateMutability": "view",
      "type": "function"
    },
    {
      "inputs": [],
      "name": "owner",
      "outputs": [
        {
          "internalType": "address",
          "name": "",
          "type": "address"
        }
      ],
      "stateMutability": "view",
      "type": "function"
    },
    {
      "inputs": [
        {
          "internalType": "bytes32",
          "name": "rootOne",
          "type": "bytes32"
        },
        {
          "internalType": "bytes32",
          "name": "rootTwo",
          "type": "bytes32"
        }
      ],
      "name": "setMerkleRoots",
      "outputs": [],
      "stateMutability": "nonpayable",
      "type": "function"
    },
    {
      "inputs": [
        {
          "internalType": "address[]",
          "name": "accounts",
          "type": "address[]"
        }
      ],
      "name": "toggleAdmins",
      "outputs": [],
      "stateMutability": "nonpayable",
      "type": "function"
    },
    {
      "inputs": [
        {
          "internalType": "address",
          "name": "newOwner",
          "type": "address"
        }
      ],
      "name": "transferOwnership",
      "outputs": [],
      "stateMutability": "nonpayable",
      "type": "function"
    }
  ],
  "bytecode": "0x608060405234801561001057600080fd5b50336000806101000a81548173ffffffffffffffffffffffffffffffffffffffff021916908373ffffffffffffffffffffffffffffffffffffffff160217905550610af7806100606000396000f3fe608060405234801561001057600080fd5b50600436106100935760003560e01c806392cca8141161006657806392cca814146101205780639a48eb511461013e578063b391c5081461015a578063c884ef8314610176578063f2fde38b146101a657610093565b806324d7806c146100985780638088f473146100c857806387090e17146100e65780638da5cb5b14610102575b600080fd5b6100b260048036038101906100ad91906106f0565b6101c2565b6040516100bf919061087c565b60405180910390f35b6100d061026e565b6040516100dd9190610897565b60405180910390f35b61010060048036038101906100fb9190610719565b610274565b005b61010a6104c7565b6040516101179190610861565b60405180910390f35b6101286104eb565b6040516101359190610897565b60405180910390f35b610158600480360381019061015391906107a3565b6104f1565b005b610174600480360381019061016f919061075e565b61053d565b005b610190600480360381019061018b91906106f0565b610541565b60405161019d91906108f2565b60405180910390f35b6101c060048036038101906101bb91906106f0565b610561565b005b60008173ffffffffffffffffffffffffffffffffffffffff1660008054906101000a900473ffffffffffffffffffffffffffffffffffffffff1673ffffffffffffffffffffffffffffffffffffffff1614806102675750600160008373ffffffffffffffffffffffffffffffffffffffff1673ffffffffffffffffffffffffffffffffffffffff16815260200190815260200160002060009054906101000a900460ff165b9050919050565b60035481565b61027d336101c2565b6102bc576040517f08c379a00000000000000000000000000000000000000000000000000000000081526004016102b3906108b2565b60405180910390fd5b60005b828290508110156104c25760016000848484818110610307577f4e487b7100000000000000000000000000000000000000000000000000000000600052603260045260246000fd5b905060200201602081019061031c91906106f0565b73ffffffffffffffffffffffffffffffffffffffff1673ffffffffffffffffffffffffffffffffffffffff16815260200190815260200160002060009054906101000a900460ff161561040a57600160008484848181106103a6577f4e487b7100000000000000000000000000000000000000000000000000000000600052603260045260246000fd5b90506020020160208101906103bb91906106f0565b73ffffffffffffffffffffffffffffffffffffffff1673ffffffffffffffffffffffffffffffffffffffff16815260200190815260200160002060006101000a81549060ff02191690556104af565b6001806000858585818110610448577f4e487b7100000000000000000000000000000000000000000000000000000000600052603260045260246000fd5b905060200201602081019061045d91906106f0565b73ffffffffffffffffffffffffffffffffffffffff1673ffffffffffffffffffffffffffffffffffffffff16815260200190815260200160002060006101000a81548160ff0219169083151502179055505b80806104ba9061097d565b9150506102bf565b505050565b60008054906101000a900473ffffffffffffffffffffffffffffffffffffffff1681565b60025481565b6104fa336101c2565b610539576040517f08c379a0000000000000000000000000000000000000000000000000000000008152600401610530906108b2565b60405180910390fd5b5050565b5050565b60056020528060005260406000206000915054906101000a900460ff1681565b60008054906101000a900473ffffffffffffffffffffffffffffffffffffffff1673ffffffffffffffffffffffffffffffffffffffff163373ffffffffffffffffffffffffffffffffffffffff16146105ef576040517f08c379a00000000000000000000000000000000000000000000000000000000081526004016105e6906108d2565b60405180910390fd5b806000806101000a81548173ffffffffffffffffffffffffffffffffffffffff021916908373ffffffffffffffffffffffffffffffffffffffff16021790555050565b60008135905061064181610a93565b92915050565b60008083601f84011261065957600080fd5b8235905067ffffffffffffffff81111561067257600080fd5b60208301915083602082028301111561068a57600080fd5b9250929050565b60008083601f8401126106a357600080fd5b8235905067ffffffffffffffff8111156106bc57600080fd5b6020830191508360208202830111156106d457600080fd5b9250929050565b6000813590506106ea81610aaa565b92915050565b60006020828403121561070257600080fd5b600061071084828501610632565b91505092915050565b6000806020838503121561072c57600080fd5b600083013567ffffffffffffffff81111561074657600080fd5b61075285828601610647565b92509250509250929050565b6000806020838503121561077157600080fd5b600083013567ffffffffffffffff81111561078b57600080fd5b61079785828601610691565b92509250509250929050565b600080604083850312156107b657600080fd5b60006107c4858286016106db565b92505060206107d5858286016106db565b9150509250929050565b6107e88161091e565b82525050565b6107f781610930565b82525050565b6108068161093c565b82525050565b600061081960278361090d565b9150610824826109f5565b604082019050919050565b600061083c602a8361090d565b915061084782610a44565b604082019050919050565b61085b81610970565b82525050565b600060208201905061087660008301846107df565b92915050565b600060208201905061089160008301846107ee565b92915050565b60006020820190506108ac60008301846107fd565b92915050565b600060208201905081810360008301526108cb8161080c565b9050919050565b600060208201905081810360008301526108eb8161082f565b9050919050565b60006020820190506109076000830184610852565b92915050565b600082825260208201905092915050565b600061092982610946565b9050919050565b60008115159050919050565b6000819050919050565b600073ffffffffffffffffffffffffffffffffffffffff82169050919050565b6000819050919050565b600060ff82169050919050565b600061098882610966565b91507fffffffffffffffffffffffffffffffffffffffffffffffffffffffffffffffff8214156109bb576109ba6109c6565b5b600182019050919050565b7f4e487b7100000000000000000000000000000000000000000000000000000000600052601160045260246000fd5b7f41646d696e50726976696c656765733a2063616c6c6572206973206e6f74206160008201527f6e2061646d696e00000000000000000000000000000000000000000000000000602082015250565b7f4f6e6c7920636f6e7472616374206f776e65722063616e207472616e7366657260008201527f206f776e65727368697000000000000000000000000000000000000000000000602082015250565b610a9c8161091e565b8114610aa757600080fd5b50565b610ab38161093c565b8114610abe57600080fd5b5056fea264697066735822122037e90a617f3277103df8a8bcdd4a32c2f2d74b8628f622d82747fb6f4da42d0c64736f6c63430008010033",
  "linkReferences": {},
  "deployedLinkReferences": {}
}