{
  "_format": "hh-sol-artifact-1",
  "contractName": "AdminPrivileges",
  "sourceName": "@siblings/modules/AdminPrivileges.sol",
  "abi": [
    {
      "inputs": [],
      "stateMutability": "nonpayable",
      "type": "constructor"
    },
    {
      "inputs": [
        {
          "internalType": "address",
          "name": "_addr",
          "type": "address"
        }
      ],
      "name": "isAdmin",
      "outputs": [
        {
          "internalType": "bool",
          "name": "",
          "type": "bool"
        }
      ],
      "stateMutability": "view",
      "type": "function"
    },
    {
      "inputs": [],
      "name": "owner",
      "outputs": [
        {
          "internalType": "address",
          "name": "",
          "type": "address"
        }
      ],
      "stateMutability": "view",
      "type": "function"
    },
    {
      "inputs": [
        {
          "internalType": "address[]",
          "name": "accounts",
          "type": "address[]"
        }
      ],
      "name": "toggleAdmins",
      "outputs": [],
      "stateMutability": "nonpayable",
      "type": "function"
    },
    {
      "inputs": [
        {
          "internalType": "address",
          "name": "newOwner",
          "type": "address"
        }
      ],
      "name": "transferOwnership",
      "outputs": [],
      "stateMutability": "nonpayable",
      "type": "function"
    }
  ],
  "bytecode": "0x608060405234801561001057600080fd5b50336000806101000a81548173ffffffffffffffffffffffffffffffffffffffff021916908373ffffffffffffffffffffffffffffffffffffffff16021790555061082e806100606000396000f3fe608060405234801561001057600080fd5b506004361061004c5760003560e01c806324d7806c1461005157806387090e17146100815780638da5cb5b1461009d578063f2fde38b146100bb575b600080fd5b61006b6004803603810190610066919061052a565b6100d7565b6040516100789190610617565b60405180910390f35b61009b60048036038101906100969190610553565b610183565b005b6100a56103d6565b6040516100b291906105fc565b60405180910390f35b6100d560048036038101906100d0919061052a565b6103fa565b005b60008173ffffffffffffffffffffffffffffffffffffffff1660008054906101000a900473ffffffffffffffffffffffffffffffffffffffff1673ffffffffffffffffffffffffffffffffffffffff16148061017c5750600160008373ffffffffffffffffffffffffffffffffffffffff1673ffffffffffffffffffffffffffffffffffffffff16815260200190815260200160002060009054906101000a900460ff165b9050919050565b61018c336100d7565b6101cb576040517f08c379a00000000000000000000000000000000000000000000000000000000081526004016101c290610632565b60405180910390fd5b60005b828290508110156103d15760016000848484818110610216577f4e487b7100000000000000000000000000000000000000000000000000000000600052603260045260246000fd5b905060200201602081019061022b919061052a565b73ffffffffffffffffffffffffffffffffffffffff1673ffffffffffffffffffffffffffffffffffffffff16815260200190815260200160002060009054906101000a900460ff161561031957600160008484848181106102b5577f4e487b7100000000000000000000000000000000000000000000000000000000600052603260045260246000fd5b90506020020160208101906102ca919061052a565b73ffffffffffffffffffffffffffffffffffffffff1673ffffffffffffffffffffffffffffffffffffffff16815260200190815260200160002060006101000a81549060ff02191690556103be565b6001806000858585818110610357577f4e487b7100000000000000000000000000000000000000000000000000000000600052603260045260246000fd5b905060200201602081019061036c919061052a565b73ffffffffffffffffffffffffffffffffffffffff1673ffffffffffffffffffffffffffffffffffffffff16815260200190815260200160002060006101000a81548160ff0219169083151502179055505b80806103c9906106cb565b9150506101ce565b505050565b60008054906101000a900473ffffffffffffffffffffffffffffffffffffffff1681565b60008054906101000a900473ffffffffffffffffffffffffffffffffffffffff1673ffffffffffffffffffffffffffffffffffffffff163373ffffffffffffffffffffffffffffffffffffffff1614610488576040517f08c379a000000000000000000000000000000000000000000000000000000000815260040161047f90610652565b60405180910390fd5b806000806101000a81548173ffffffffffffffffffffffffffffffffffffffff021916908373ffffffffffffffffffffffffffffffffffffffff16021790555050565b6000813590506104da816107e1565b92915050565b60008083601f8401126104f257600080fd5b8235905067ffffffffffffffff81111561050b57600080fd5b60208301915083602082028301111561052357600080fd5b9250929050565b60006020828403121561053c57600080fd5b600061054a848285016104cb565b91505092915050565b6000806020838503121561056657600080fd5b600083013567ffffffffffffffff81111561058057600080fd5b61058c858286016104e0565b92509250509250929050565b6105a181610683565b82525050565b6105b081610695565b82525050565b60006105c3602783610672565b91506105ce82610743565b604082019050919050565b60006105e6602a83610672565b91506105f182610792565b604082019050919050565b60006020820190506106116000830184610598565b92915050565b600060208201905061062c60008301846105a7565b92915050565b6000602082019050818103600083015261064b816105b6565b9050919050565b6000602082019050818103600083015261066b816105d9565b9050919050565b600082825260208201905092915050565b600061068e826106a1565b9050919050565b60008115159050919050565b600073ffffffffffffffffffffffffffffffffffffffff82169050919050565b6000819050919050565b60006106d6826106c1565b91507fffffffffffffffffffffffffffffffffffffffffffffffffffffffffffffffff82141561070957610708610714565b5b600182019050919050565b7f4e487b7100000000000000000000000000000000000000000000000000000000600052601160045260246000fd5b7f41646d696e50726976696c656765733a2063616c6c6572206973206e6f74206160008201527f6e2061646d696e00000000000000000000000000000000000000000000000000602082015250565b7f4f6e6c7920636f6e7472616374206f776e65722063616e207472616e7366657260008201527f206f776e65727368697000000000000000000000000000000000000000000000602082015250565b6107ea81610683565b81146107f557600080fd5b5056fea264697066735822122005d93997d7a676b8386daf960f5118a6aba7f61fe20bab01aa5a1d498ec5201864736f6c63430008010033",
  "linkReferences": {},
  "deployedLinkReferences": {}
}